:100000000C942A000C9447000C9447000C94470071
:100010000C9447000C9447000C9447000C94470044
:100020000C9447000C9447000C9447000C94470034
:100030000C9447000C9447000C9447000C94470024
:100040000C9447000C9447000C9447000C94470014
:100050000C94470011241FBECFE5D8E0DEBFCDBF12
:1000600010E0A0E6B0E0EEE6F5E002C005900D92EB
:10007000A23AB107D9F720E0A2EAB0E001C01D9290
:10008000A33AB207E1F70E9425020C94B5020C9442
:100090000000843008F07BC0683008F07AC041303E
:1000A000C1F5813091F028F08230D9F0833029F108
:1000B00072C02AB381E090E002C0880F991F6A9550
:1000C000E2F7822B8ABB81E0089527B381E090E0BC
:1000D00002C0880F991F6A95E2F7822B87BB81E0E7
:1000E000089524B381E090E002C0880F991F6A95BB
:1000F000E2F7822B84BB81E0089521B381E090E098
:1001000002C0880F991F6A95E2F7822B81BB81E0BC
:100110000895411142C0813099F028F08230E9F011
:10012000833041F13CC02AB381E090E002C0880FE7
:10013000991F6A95E2F7809582238ABB81E0089532
:1001400027B381E090E002C0880F991F6A95E2F71B
:100150008095822387BB81E0089524B381E090E0FD
:1001600002C0880F991F6A95E2F78095822384BBAD
:1001700081E0089521B381E090E002C0880F991FCB
:100180006A95E2F78095822381BB81E0089580E043
:10019000089580E0089581E0089580E0089581E069
:1001A0000895843008F07BC0683008F07AC0413090
:1001B000C1F5813091F028F08230D9F0833029F1F7
:1001C00072C02BB381E090E002C0880F991F6A953E
:1001D000E2F7822B8BBB81E0089528B381E090E0A9
:1001E00002C0880F991F6A95E2F7822B88BB81E0D5
:1001F000089525B381E090E002C0880F991F6A95A9
:10020000E2F7822B85BB81E0089522B381E090E084
:1002100002C0880F991F6A95E2F7822B82BB81E0AA
:100220000895411142C0813099F028F08230E9F000
:10023000833041F13CC02BB381E090E002C0880FD5
:10024000991F6A95E2F7809582238BBB81E0089520
:1002500028B381E090E002C0880F991F6A95E2F709
:100260008095822388BB81E0089525B381E090E0EA
:1002700002C0880F991F6A95E2F78095822385BB9B
:1002800081E0089522B381E090E002C0880F991FB9
:100290006A95E2F78095822382BB81E0089580E031
:1002A000089580E0089581E0089580E0089581E058
:1002B0000895862F672F41E00E9449000895962FE8
:1002C000813031F441E0672F892F0E94D1000895D9
:1002D000811105C040E0672F892F0E94D100089549
:1002E000962F813031F440E0672F892F0E94D10092
:1002F0000895811105C041E0672F892F0E94D10028
:100300000895CF93DF93EC0169E670E00E94AC02A0
:10031000892BC9F460916600709167008091680034
:100320000E945F016091630070916400809165009C
:100330000E945F0160916000709161008091620095
:100340000E945F017FC06FE670E0CE010E94AC02A8
:10035000892BC9F4609166007091670080916800F4
:100360000E9470016091630070916400809165004B
:100370000E94700160916000709161008091620044
:100380000E9470015FC066E770E0CE010E94AC027F
:10039000892B49F460916600709167008091680034
:1003A0000E945F014FC06CE770E0CE010E94AC027A
:1003B000892B49F460916600709167008091680014
:1003C0000E9470013FC063E870E0CE010E94AC0261
:1003D000892B49F4609163007091640080916500FD
:1003E0000E945F012FC069E870E0CE010E94AC025C
:1003F000892B49F4609163007091640080916500DD
:100400000E9470011FC060E970E0CE010E94AC0242
:10041000892B49F4609160007091610080916200C5
:100420000E945F010FC068E970E0CE010E94AC023B
:10043000892B41F4609160007091610080916200AD
:100440000E947001DF91CF910895CF93DF93CDB7D4
:10045000DEB72B970FB6F894DEBF0FBECDBF60910D
:10046000660070916700809168000E945901609158
:10047000630070916400809165000E945901609151
:10048000600070916100809162000E9459010E9499
:10049000700210E000E001C0192FCE010B960E94FF
:1004A0007E028111FACF8B858D3069F4E1E0F0E0B6
:1004B000EC0FFD1FE10FF11D1082CE0101960E948D
:1004C0008101102FEACF91E0910FE1E0F0E0EC0F15
:1004D000FD1FE10FF11D80839A30F0F2102FDDCF68
:1004E00010BC83E389B959985898529886E880BD22
:1004F000579856985598549A539A0895009741F1F1
:100500002091A200211126C021E02093A2005F9932
:1005100016C040E050E0BA014F5F5F4F6F4F7F4F12
:100520005F9908C0403127E2520761057105A1F7C4
:1005300084E00BC0403157426105710529F02CB1B0
:10054000FC01208380E001C084E01092A2000895A5
:1005500082E0089583E00895FB01DC018D91019014
:0E05600080190110D9F3990B0895F894FFCF7C
:10056E00000201000101000001616C6C6F6E006100
:10057E006C6C6F6666006F6E656F6E006F6E656F8A
:10058E0066660074776F6F6E0074776F6F666600C5
:10059E0074687265656F6E0074687265656F666605
:0205AE0000004B
:00000001FF
