S00C0000636F64652E737265637D
S11300000C942A000C943F000C943F000C943F0085
S11300100C943F000C943F000C943F000C943F0060
S11300200C943F000C943F000C943F000C943F0050
S11300300C943F000C943F000C943F000C943F0040
S11300400C943F000C943F000C943F000C943F0030
S11300500C943F0011241FBECFE5D8E0DEBFCDBF16
S113006011E0A0E6B0E0ECEDFAE002C005900D92DC
S1130070A839B107D9F70E9471030C946C050C944C
S1130080000041E063E081E00E9497018FEC97E07B
S11300900197F1F700C0000040E063E081E00E94B6
S11300A097018FEC97E00197F1F700C000000895E5
S11300B0CF93C82F41E061E081E00E94970140E0C6
S11300C062E081E00E9497016C2F62956F7080E07E
S11300D00E9488020E9441006C2F80E00E948802E6
S11300E00E9441008FEC97E00197F1F700C00000F7
S11300F0CF910895CF93C82F40E061E081E00E9442
S1130100970140E062E081E00E9497016C2F6295C4
S11301106F7080E00E9488020E9441006C2F80E092
S11301200E9488020E9441008FEC97E00197F1F74A
S113013000C00000CF9108950F931F93CF93FC014B
S11301408081882359F08F01C0E00E945800CF5F5E
S1130150F801EC0FF11D80818111F7CFCF911F9130
S11301600F91089581E00E947A008FE19EE4019747
S1130170F1F700C0000008952FE788E391E02150D3
S113018080409040E1F700C0000041E064E080E07E
S11301900E940F0141E065E080E00E940F0141E010
S11301A066E080E00E940F0141E067E080E00E9489
S11301B00F0141E061E081E00E940F0141E062E053
S11301C081E00E940F0141E063E081E00E940F01A1
S11301D082E00E947A008FE59AEE0197F1F700C061
S11301E0000088E20E947A008FEC97E00197F1F713
S11301F000C000008CE00E947A008FEC97E0019729
S1130200F1F700C000000E94B20086E00E947A006C
S11302108FEC97E00197F1F700C000000895843057
S113022008F07BC0683008F07AC04130C1F58130F5
S113023091F028F08230D9F0833029F172C02AB3CA
S113024081E090E002C0880F991F6A95E2F7822B43
S11302508ABB81E0089527B381E090E002C0880F53
S1130260991F6A95E2F7822B87BB81E0089524B336
S113027081E090E002C0880F991F6A95E2F7822B13
S113028084BB81E0089521B381E090E002C0880F2F
S1130290991F6A95E2F7822B81BB81E00895411191
S11302A042C0813099F028F08230E9F0833041F186
S11302B03CC02AB381E090E002C0880F991F6A9580
S11302C0E2F7809582238ABB81E0089527B381E019
S11302D090E002C0880F991F6A95E2F78095822307
S11302E087BB81E0089524B381E090E002C0880FC9
S11302F0991F6A95E2F78095822384BB81E0089573
S113030021B381E090E002C0880F991F6A95E2F75B
S11303108095822381BB81E0089580E0089580E088
S1130320089581E0089580E0089581E0089584307F
S113033008F07BC0683008F07AC04130C1F58130E4
S113034091F028F08230D9F0833029F172C02BB3B8
S113035081E090E002C0880F991F6A95E2F7822B32
S11303608BBB81E0089528B381E090E002C0880F40
S1130370991F6A95E2F7822B88BB81E0089525B323
S113038081E090E002C0880F991F6A95E2F7822B02
S113039085BB81E0089522B381E090E002C0880F1C
S11303A0991F6A95E2F7822B82BB81E0089541117F
S11303B042C0813099F028F08230E9F0833041F175
S11303C03CC02BB381E090E002C0880F991F6A956E
S11303D0E2F7809582238BBB81E0089528B381E006
S11303E090E002C0880F991F6A95E2F780958223F6
S11303F088BB81E0089525B381E090E002C0880FB6
S1130400991F6A95E2F78095822385BB81E0089560
S113041022B381E090E002C0880F991F6A95E2F749
S11304208095822382BB81E0089580E0089580E076
S1130430089581E0089580E0089581E0089584306E
S113044008F060C0683008F05FC08130E1F030F03F
S1130450823071F1833009F440C058C029B381E07F
S113046090E0062E02C0880F991F0A94E2F730E04C
S11304708223932302C0959587956A95E2F7FA0142
S1130480808381E0089526B381E090E0062E02C0C7
S1130490880F991F0A94E2F730E08223932302C065
S11304A0959587956A95E2F7FA01808381E008952E
S11304B023B381E090E0062E02C0880F991F0A94AE
S11304C0E2F730E08223932302C0959587956A95DD
S11304D0E2F7FA01808381E0089520B381E090E09F
S11304E0062E02C0880F991F0A94E2F730E0822397
S11304F0932302C0959587956A95E2F7FA01808364
S113050081E0089580E0089580E0089581E00895F1
S1130510843050F56295607F813071F028F082302C
S113052099F08330C9F022C08BB38F708BBB8BB32F
S1130530682B6BBB81E0089588B38F7088BB88B348
S1130540682B68BB81E0089585B38F7085BB85B344
S1130550682B65BB81E0089582B38F7082BB82B340
S1130560682B62BB81E0089580E0089581E00895DE
S113057040E060E083E00E940F0140E061E083E03E
S11305800E940F0140E062E083E00E940F0140E01E
S113059063E083E00E940F0141E060E083E00E9499
S11305A0970141E061E083E00E94970141E062E04D
S11305B083E00E94970141E063E083E00E94970199
S11305C041E064E083E00E940F0141E065E083E0E4
S11305D00E940F0141E066E083E00E940F0141E0C8
S11305E067E083E00E940F0141E064E083E00E9441
S11305F0970141E065E083E00E94970141E066E0F5
S113060083E00E94970141E067E083E00E94970144
S11306100895DF92EF92FF920F931F93CF93DF938E
S11306201F92CDB7DEB7E12CF12C04E0DD24DA947F
S113063040E0602F83E00E94970110E0AE014F5F1D
S11306405F4F612F83E00E941F028981811130C0B6
S113065083ED90E30197F1F700C00000AE014F5F16
S11306605F4F612F83E00E941F02898181110BC0BB
S1130670E12FF0E0EE0FFF1FEE0FFF1FE05AFF4FD8
S1130680EE0DFF1DD080AE014F5F5F4F612F83E001
S11306900E941F02898181110EC0AE014F5F5F4F1E
S11306A0612F83E00E941F0289818823B1F303C074
S11306B01F5F143019F641E0602F83E00E94970118
S11306C00F5F9FEFE91AF90A083009F0B1CF8D2DB9
S11306D00F90DF91CF911F910F91FF90EF90DF90DA
S11306E008950E94BC000E94B80280E790E00E9436
S11306F09C002FE38DE093E0215080409040E1F78F
S113070000C000000E94B20089E790E00E949C00B3
S11307100E940903813309F03FC00E94B2008AE8B5
S113072090E00E949C000E94B2008CE890E00E943D
S11307309C000E9409038333F9F48EEA90E00E943E
S11307409C002FE38DE093E0215080409040E1F73E
S113075000C000000E94B2008FEB90E00E949C0059
S11307602FE38DE093E0215080409040E1F700C0FA
S113077000000E94B200B9CF8AEC90E00E949C0075
S11307802FE38DE093E0215080409040E1F700C0DA
S113079000000E94B200A9CF823309F03FC00E943A
S11307A0B20087ED90E00E949C000E94B20089EDA7
S11307B090E00E949C000E9409038933F9F48EEAB8
S11307C090E00E949C002FE38DE093E02150804054
S11307D09040E1F700C000000E94B2008FEB90E06F
S11307E00E949C002FE38DE093E0215080409040D4
S11307F0E1F700C000000E94B20077CF8AEC90E0DD
S11308000E949C002FE38DE093E0215080409040B3
S1130810E1F700C000000E94B20067CF8333C1F447
S11308200E94B20087EF90E00E949C000E94B200F8
S113083089EF90E00E949C002FE38DE093E021502B
S113084080409040E1F700C000000E94B2004DCF0C
S1130850843381F50E94B2008AE091E00E949C00FA
S11308600E94B2008CE091E00E949C000E94090367
S1130870803381F48EEA90E00E949C002FE38DE0A7
S113088093E0215080409040E1F700C000000E94B6
S1130890B2002BCF8AEC90E00E949C002FE38DE005
S11308A093E0215080409040E1F700C000000E9496
S11308B0B2001BCF853381F50E94B20085E191E03F
S11308C00E949C000E94B20087E191E00E949C007B
S11308D00E940903843381F48AE291E00E949C001F
S11308E02FE38DE093E0215080409040E1F700C079
S11308F000000E94B200F9CE8AEC90E00E949C00B5
S11309002FE38DE093E0215080409040E1F700C058
S113091000000E94B200E9CE863381F50E94B20045
S113092087E391E00E949C000E94B20089E391E079
S11309300E949C000E940903873381F48EEA90E0B0
S11309400E949C002FE38DE093E021508040904072
S1130950E1F700C000000E94B200C7CE8AEC90E02C
S11309600E949C002FE38DE093E021508040904052
S1130970E1F700C000000E94B200B7CE873381F5D2
S11309800E94B2008FE491E00E949C000E94B20099
S113099081E591E00E949C000E940903883381F460
S11309A08EEA90E00E949C002FE38DE093E02150BA
S11309B080409040E1F700C000000E94B20095CE54
S11309C08AEC90E00E949C002FE38DE093E021509C
S11309D080409040E1F700C000000E94B20085CE44
S11309E08833C1F40E94B20083E691E00E949C0027
S11309F00E94B20085E691E00E949C002FE38DE006
S1130A0093E0215080409040E1F700C000000E9434
S1130A10B2006BCE893309F03FC00E94B20081E777
S1130A2091E00E949C000E94B20083E791E00E9442
S1130A309C000E9409038733F9F48EEA90E00E9437
S1130A409C002FE38DE093E0215080409040E1F73B
S1130A5000C000000E94B2008FEB90E00E949C0056
S1130A602FE38DE093E0215080409040E1F700C0F7
S1130A7000000E94B20039CE8AEC90E00E949C00F3
S1130A802FE38DE093E0215080409040E1F700C0D7
S1130A9000000E94B20029CE8033C1F40E94B2004B
S1130AA088E891E00E949C000E94B2008AE891E0EC
S1130AB00E949C002FE38DE093E021508040904001
S1130AC0E1F700C000000E94B2000FCE8F3309F09E
S10F0AD00CCE0E94B20009CEF894FFCFB7
S1130ADC3738392F3435362A3132332D3F303D2BCC
S1130AEC57656C636F6D652100507265737320617B
S1130AFC6E79204E756D62657200310047756573B1
S1130B0C7320746865204E756D6265722069276D5B
S1130B1C207468696E6B696E67205E5F5E00546852
S1130B2C61742773205269676874205E5F5E0047A6
S1130B3C6F6F64206A6F622121004E6F74205269BA
S1130B4C676874203A280032005768617427732050
S1130B5C6D79206661766F72697465204E756D626D
S1130B6C6572205E5F5E0033004E6F7468696E6759
S1130B7C20666F7220796F757E00340031202B2033
S1130B8C31203D3F003500537175617265206861F9
S1130B9C73203F2073696465730054686174277310
S1130BAC2052696768740036003F20636F6E746965
S1130BBC6E656E7473206F6E206561727468003795
S1130BCC0053706964657220686173203F206C6502
S1130BDC67730038004E6F7468696E67205E5F5EE1
S1130BEC0039005261696E626F7720686173203F2F
S1130BFC20636F6C6F72730030004E206F20742072
S10B0C0C682069206E206700D6
S9030000FC
