S00E00007461736B31332E73726563FF
S11300000C942A000C943C000C943C000C943C008E
S11300100C943C000C943C000C943C000C943C006C
S11300200C943C000C943C000C943C000C943C005C
S11300300C943C000C943C000C943C000C943C004C
S11300400C943C000C943C000C943C000C943C003C
S11300500C943C0011241FBECFE5D8E0DEBFCDBF19
S113006020E0A0E6B0E001C01D92A136B207E1F79E
S11300700E94FF010C943B030C9400003E9A3F98AD
S11300803D9886B1887F86B986B1876086B9379AEC
S1130090339A08956115710599F190916000911159
S11300A031C091E09093600097B1907E97B997B179
S11300B0892B87B9369A349915C080E090E0DC0129
S11300C00196A11DB11D349908C0803523EC920717
S11300D0A105B105A9F784E010C08035934CA105B2
S11300E0B10551F0349A84B125B190E0922BFB0113
S11300F09183808380E001C084E0109260000895C1
S113010082E0089583E00895843008F07BC068306D
S113011008F07AC04130C1F5813091F028F0823086
S1130120D9F0833029F172C02AB381E090E002C093
S1130130880F991F6A95E2F7822B8ABB81E00895A4
S113014027B381E090E002C0880F991F6A95E2F717
S1130150822B87BB81E0089524B381E090E002C044
S1130160880F991F6A95E2F7822B84BB81E008957A
S113017021B381E090E002C0880F991F6A95E2F7ED
S1130180822B81BB81E00895411142C0813099F0F6
S113019028F08230E9F0833041F13CC02AB381E099
S11301A090E002C0880F991F6A95E2F78095822338
S11301B08ABB81E0089527B381E090E002C0880FF4
S11301C0991F6A95E2F78095822387BB81E00895A1
S11301D024B381E090E002C0880F991F6A95E2F78A
S11301E08095822384BB81E0089521B381E090E06F
S11301F002C0880F991F6A95E2F78095822381BB1C
S113020081E0089580E0089580E0089581E00895F4
S113021080E0089581E00895843008F07BC0683060
S113022008F07AC04130C1F5813091F028F0823075
S1130230D9F0833029F172C02BB381E090E002C081
S1130240880F991F6A95E2F7822B8BBB81E0089592
S113025028B381E090E002C0880F991F6A95E2F705
S1130260822B88BB81E0089525B381E090E002C031
S1130270880F991F6A95E2F7822B85BB81E0089568
S113028022B381E090E002C0880F991F6A95E2F7DB
S1130290822B82BB81E00895411142C0813099F0E4
S11302A028F08230E9F0833041F13CC02BB381E087
S11302B090E002C0880F991F6A95E2F78095822327
S11302C08BBB81E0089528B381E090E002C0880FE1
S11302D0991F6A95E2F78095822388BB81E008958F
S11302E025B381E090E002C0880F991F6A95E2F778
S11302F08095822385BB81E0089522B381E090E05C
S113030002C0880F991F6A95E2F78095822382BB09
S113031081E0089580E0089580E0089581E00895E3
S113032080E0089581E008956830C0F5813091F04F
S113033028F08230D9F0833029F132C02BB381E028
S113034090E002C0880F991F6A95E2F782278BBB61
S113035081E0089528B381E090E002C0880F991FDE
S11303606A95E2F7822788BB81E0089525B381E08E
S113037090E002C0880F991F6A95E2F7822785BB37
S113038081E0089522B381E090E002C0880F991FB4
S11303906A95E2F7822782BB81E0089580E00895A0
S11303A081E00895862F672F41E00E94840008951C
S11303B0962F813031F441E0672F892F0E940C0180
S11303C00895811105C040E0672F892F0E940C0118
S11303D00895962F813031F440E0672F892F0E94D1
S11303E00C010895811105C041E0672F892F0E94F7
S11303F00C010895862F672F0E9494010895CF93CE
S1130400DF9300D0CDB7DEB766246394712C8824C3
S1130410839499249394AA24A394BB24B394CC24C2
S1130420C3946894DD24D1F8EE24E394FF24F39478
S113043003E011E0332433946894442442F85524AF
S1130440539461E070E081E00E94D20161E071E0C8
S113045081E00E94D20161E072E081E00E94D20159
S113046061E073E081E00E94D20161E074E081E028
S11304700E94D2010E943E001A821982BE016F5F5F
S11304807F4F80E00E944A008111EFC089819A81E8
S1130490813223E0920748F1662D772D882D0E9442
S11304A0D801692D7A2D8B2D0E94D8016C2D7D2DBC
S11304B08E2D0E94D8016F2D702F812F0E94D8019C
S11304C0662D772D882D0E94E901692D7A2D8B2DBB
S11304D00E94E9016C2D7D2D8E2D0E94E9016F2D66
S11304E0702F812F0E94E901C9CF9C01255F314003
S11304F02B32314008F04FC0662D772D882D0E9495
S1130500E901692D7A2D8B2D0E94E9016C2D7D2D39
S11305108E2D0E94E9016F2D702F812F0E94E90119
S1130520662D772D882D0E94D801692D7A2D8B2D6B
S11305300E94D8018FE39DE023E081509040204049
S1130540E1F700C00000662D772D882D0E94E90197
S1130550692D7A2D8B2D0E94E9016C2D7D2D8E2D18
S11305600E94D8016F2D702F812F0E94D8014FE374
S11305708DE093E0415080409040E1F700C00000DE
S11305806C2D7D2D8E2D0E94E9016F2D702F812FF2
S11305900E94E90173CF8D529140873C910508F088
S11305A04FC0662D772D882D0E94E901692D7A2D83
S11305B08B2D0E94E9016C2D7D2D8E2D0E94E90169
S11305C06F2D702F812F0E94E9016C2D7D2D8E2DB2
S11305D00E94D8016F2D702F812F0E94D8012FE324
S11305E04DE083E0215040408040E1F700C000002E
S11305F06C2D7D2D8E2D0E94E9016F2D702F812F82
S11306000E94E901662D772D882D0E94D801692D5D
S11306107A2D8B2D0E94D8019FE32DE043E0915069
S113062020404040E1F700C00000662D772D882D62
S11306300E94E901692D7A2D8B2D0E94E9011ECFBC
S1130640662D772D882D0E94E901692D7A2D8B2D39
S11306500E94E9016C2D7D2D8E2D0E94E9016F2DE4
S1130660702F812F0E94E90109CF632D742D852DF0
S10D06700E94FA0103CFF894FFCFB3
S9030000FC
