:100000000C942A000C9434000C9434000C943400AA
:100010000C9434000C9434000C9434000C94340090
:100020000C9434000C9434000C9434000C94340080
:100030000C9434000C9434000C9434000C94340070
:100040000C9434000C9434000C9434000C94340060
:100050000C94340011241FBECFE5D8E0DEBFCDBF25
:100060000E94D7010C9464040C940000843008F0C2
:100070007BC0683008F07AC04130C1F5813091F022
:1000800028F08230D9F0833029F172C02AB381E0A0
:1000900090E002C0880F991F6A95E2F7822B8ABB15
:1000A00081E0089527B381E090E002C0880F991F96
:1000B0006A95E2F7822B87BB81E0089524B381E043
:1000C00090E002C0880F991F6A95E2F7822B84BBEB
:1000D00081E0089521B381E090E002C0880F991F6C
:1000E0006A95E2F7822B81BB81E00895411142C0FD
:1000F000813099F028F08230E9F0833041F13CC042
:100100002AB381E090E002C0880F991F6A95E2F758
:10011000809582238ABB81E0089527B381E090E037
:1001200002C0880F991F6A95E2F78095822387BBEA
:1001300081E0089524B381E090E002C0880F991F08
:100140006A95E2F78095822384BB81E0089521B30C
:1001500081E090E002C0880F991F6A95E2F78095D0
:10016000822381BB81E0089580E0089580E00895B6
:1001700081E0089580E0089581E00895843008F0DA
:100180007BC0683008F07AC04130C1F5813091F011
:1001900028F08230D9F0833029F172C02BB381E08E
:1001A00090E002C0880F991F6A95E2F7822B8BBB03
:1001B00081E0089528B381E090E002C0880F991F84
:1001C0006A95E2F7822B88BB81E0089525B381E030
:1001D00090E002C0880F991F6A95E2F7822B85BBD9
:1001E00081E0089522B381E090E002C0880F991F5A
:1001F0006A95E2F7822B82BB81E00895411142C0EB
:10020000813099F028F08230E9F0833041F13CC030
:100210002BB381E090E002C0880F991F6A95E2F746
:10022000809582238BBB81E0089528B381E090E024
:1002300002C0880F991F6A95E2F78095822388BBD8
:1002400081E0089525B381E090E002C0880F991FF6
:100250006A95E2F78095822385BB81E0089522B3F9
:1002600081E090E002C0880F991F6A95E2F78095BF
:10027000822382BB81E0089580E0089580E00895A4
:1002800081E0089580E0089581E00895843008F0C9
:1002900060C0683008F05FC08130E1F030F082303B
:1002A00071F1833009F440C058C029B381E090E077
:1002B000062E02C0880F991F0A94E2F730E08223CD
:1002C000932302C0959587956A95E2F7FA0180839A
:1002D00081E0089526B381E090E0062E02C0880FE9
:1002E000991F0A94E2F730E08223932302C0959588
:1002F00087956A95E2F7FA01808381E0089523B338
:1003000081E090E0062E02C0880F991F0A94E2F760
:1003100030E08223932302C0959587956A95E2F792
:10032000FA01808381E0089520B381E090E0062EF9
:1003300002C0880F991F0A94E2F730E082239323CA
:1003400002C0959587956A95E2F7FA01808381E06E
:10035000089580E0089580E0089581E00895862F53
:10036000672F41E00E9436000895962F813031F4C6
:1003700041E0672F892F0E94BE000895811105C0BA
:1003800040E0672F892F0E94BE000895962F81308C
:1003900031F440E0672F892F0E94BE00089581113B
:1003A00005C041E0672F892F0E94BE000895912C5F
:1003B0006894222422F833243394A12C0F2EF5E0E4
:1003C0004F2EF02D55245394B12C0F2EF6E06F2EA6
:1003D000F02D77247394C12C0F2EF7E08F2EF02D83
:1003E000D12C0F2EF3E0EF2EF02D0F2EF5E0FF2E87
:1003F000F02D00E013E0D6E0C0E060E070E081E0C6
:100400000E94AF0160E071E081E00E94AF0160E016
:1004100072E081E00E94AF0160E073E081E00E9441
:10042000AF0160E074E081E00E94AF0160E075E040
:1004300081E00E94AF0160E076E081E00E94AF01C0
:1004400060E077E081E00E94AF0161E070E081E070
:100450000E94AF0161E071E081E00E94AF0161E0C4
:1004600072E081E00E94AF0161E073E081E00E94F0
:10047000AF0161E074E081E00E94AF0161E075E0EE
:1004800081E00E94AF0161E076E081E00E94AF016F
:1004900061E077E081E00E94AF0162E070E081E01E
:1004A0000E94AF0162E071E081E00E94AF0162E072
:1004B00072E081E00E94AF0162E073E081E00E949F
:1004C000AF0162E074E081E00E94AF0162E075E09C
:1004D00081E00E94AF0162E076E081E00E94AF011E
:1004E00062E077E081E00E94AF0163E074E080E0C9
:1004F0000E94240463E075E080E00E94240463E02D
:1005000076E080E00E94240463E077E080E00E94CF
:100510002404612F7D2F8C2F0E943A04813009F032
:10052000C5C061E07D2D0E94B5018FE493EC019779
:10053000F1F700C0000061E071E081E00E94B501C8
:10054000692D722D832D0E94B50161E074E081E078
:100550000E94B5018FE493EC0197F1F700C0000011
:10056000692D722D832D0E94C60161E074E081E047
:100570000E94C60161E072E081E00E94B5016A2D2F
:10058000742D852D0E94B50161E075E081E00E9427
:10059000B5018FE493EC0197F1F700C000006A2DDC
:1005A000742D852D0E94C60161E075E081E00E94F6
:1005B000C6016B2D762D872D0E94B50161E076E096
:1005C00081E00E94B50161E073E081E00E94B50125
:1005D0008FE493EC0197F1F700C000006B2D762DAE
:1005E000872D0E94C60161E076E081E00E94C6018D
:1005F00061E07D2D81E00E94C6016C2D782D81E0A7
:100600000E94B50161E077E081E00E94B50162E0FF
:1006100076E081E00E94B5018FE493EC0197F1F759
:1006200000C000006C2D782D81E00E94C60161E0C1
:1006300077E081E00E94C60161E071E081E00E9404
:10064000C60162E075E081E00E94B50162E077E0FA
:1006500081E00E94B5018FE493EC0197F1F700C0AF
:10066000000062E075E081E00E94C60162E077E090
:1006700081E00E94C60161E072E081E00E94C60153
:100680008FE493EC0197F1F700C0000061E073E0A4
:1006900081E00E94C6018FE493EC0197F1F700C05E
:1006A000000062E076E081E00E94C6016E2D7F2DA1
:1006B000802F0E943A04813009F02BCF62E076E06F
:1006C0000E94B5018FE493EC0197F1F700C00000A0
:1006D00062E075E081E00E94B50162E077E081E0D0
:1006E0000E94B50161E073E081E00E94B5018FE4F2
:1006F00093EC0197F1F700C0000062E075E081E043
:100700000E94C60162E077E081E00E94C6016C2D84
:10071000782D81E00E94B50161E077E081E00E94E0
:10072000B50161E072E081E00E94B5018FE493ECD5
:100730000197F1F700C000006C2D782D81E00E9438
:10074000C60161E077E081E00E94C6016B2D762D45
:10075000872D0E94B50161E076E081E00E94B5013D
:1007600061E071E081E00E94B5018FE493EC0197B4
:10077000F1F700C000006B2D762D872D0E94C60179
:1007800061E076E081E00E94C60162E076E081E00F
:100790000E94C6016A2D742D852D0E94B50161E06D
:1007A00075E081E00E94B50161E07D2D81E00E944D
:1007B000B5018FE493EC0197F1F700C000006A2DBA
:1007C000742D852D0E94C60161E075E081E00E94D4
:1007D000C60161E073E081E00E94C601692D722DBF
:1007E000832D0E94B50161E074E081E00E94B501B3
:1007F0008FE493EC0197F1F700C00000692D722D92
:10080000832D0E94C60161E074E081E00E94C60170
:1008100061E072E081E00E94C6018FE493EC0197F1
:10082000F1F700C0000061E071E081E00E94C601C4
:100830008FE493EC0197F1F700C0000061E07D2D9B
:1008400081E00E94C60165CE1F93CF93DF93C62F30
:10085000D72F182F40E0672F8C2F0E9436001111E0
:1008600005C041E06D2F8C2F0E94BE00DF91CF911B
:100870001F910895CF93DF931F92CDB7DEB7962FC8
:100880001982823068F4AE014F5F5F4F672F892F66
:100890000E94460181E09981992391F080E010C087
:1008A000823069F4AE014F5F5F4F672F892F0E943E
:1008B000460181E09981913019F080E001C080E02B
:0C08C0000F90DF91CF910895F894FFCFC6
:00000001FF
