S00C0000636F64652E737265637D
S11300000C942A000C9447000C9447000C9447006D
S11300100C94FE020C94D5020C94AC020C94830252
S11300200C945A020C9431020C9408020C94DF01D3
S11300300C9447000C9447000C9447000C94470020
S11300400C9447000C9447000C9447000C94470010
S11300500C94470011241FBECFE5D8E0DEBFCDBF0E
S113006010E0A0E6B0E0E2E5F6E002C005900D92F3
S1130070A836B107D9F720E0A8E6B0E001C01D9288
S1130080A039B207E1F70E9488010C9427030C946D
S11300900000843008F07BC0683008F07AC041303A
S11300A0C1F5813091F028F08230D9F0833029F104
S11300B072C02AB381E090E002C0880F991F6A954C
S11300C0E2F7822B8ABB81E0089527B381E090E0B8
S11300D002C0880F991F6A95E2F7822B87BB81E0E3
S11300E0089524B381E090E002C0880F991F6A95B7
S11300F0E2F7822B84BB81E0089521B381E090E094
S113010002C0880F991F6A95E2F7822B81BB81E0B8
S11301100895411142C0813099F028F08230E9F00D
S1130120833041F13CC02AB381E090E002C0880FE3
S1130130991F6A95E2F7809582238ABB81E008952E
S113014027B381E090E002C0880F991F6A95E2F717
S11301508095822387BB81E0089524B381E090E0F9
S113016002C0880F991F6A95E2F78095822384BBA9
S113017081E0089521B381E090E002C0880F991FC7
S11301806A95E2F78095822381BB81E0089580E03F
S1130190089580E0089581E0089580E0089581E065
S11301A008956830C0F5813091F028F08230D9F09C
S11301B0833029F132C02BB381E090E002C0880F74
S11301C0991F6A95E2F782278BBB81E0089528B3D3
S11301D081E090E002C0880F991F6A95E2F78227B8
S11301E088BB81E0089525B381E090E002C0880FC8
S11301F0991F6A95E2F7822785BB81E0089522B3AF
S113020081E090E002C0880F991F6A95E2F7822787
S113021082BB81E0089580E0089581E008958FB75E
S113022080688FBF0895862F672F41E00E944900A0
S11302300895862F672F0E94D100089580916C0045
S113024090916D00A0916E00B0916F000196A11D78
S1130250B11D80936C0090936D00A0936E00B093D9
S11302606F0080916C0090916D00A0916E00B09130
S11302706F00883E9340A105B105A1F4809161000F
S11302800E94CD01609165007091660080916700C5
S11302900E94190110926C0010926D0010926E0071
S11302A010926F0008958091680090916900A09168
S11302B06A00B0916B000196A11DB11D8093680086
S11302C090936900A0936A00B0936B0080916800DA
S11302D090916900A0916A00B0916B00803D9740B5
S11302E0A105B105A1F4809160000E94CF01609145
S11302F0620070916300809164000E941901109261
S113030068001092690010926A0010926B000895C0
S11303106091650070916600809167000E941301EE
S11303206091620070916300809164000E941301E7
S11303300E94A9010E94BB016BE08EE191E00E9442
S1130340D10164E083E591E00E94D1010E940F0194
S1130350FFCF83B78F7B83BF83B7877F83BF80EC57
S113036082BF89B7816089BF83B7887F83BF83B722
S1130370826083BF089585B58F7B85BD85B5886010
S113038085BD8DE783BD89B7806889BF85B5887FC2
S113039085BD85B5836085BD089582BF089583BDFD
S11303A00895009751F0E62FF0E0EE0FFF1FE0599B
S11303B0FF4F9183808380E0089582E008951F9227
S11303C00F920FB60F9211242F933F934F935F9385
S11303D06F937F938F939F93AF93BF93EF93FF9309
S11303E0E0918600F0918700309709F00995FF911C
S11303F0EF91BF91AF919F918F917F916F915F9199
S11304004F913F912F910F900FBE0F901F90189511
S11304101F920F920FB60F9211242F933F934F9375
S11304205F936F937F938F939F93AF93BF93EF9358
S1130430FF93E0918400F0918500309709F00995CD
S1130440FF91EF91BF91AF919F918F917F916F91A8
S11304505F914F913F912F910F900FBE0F901F907E
S113046018951F920F920FB60F9211242F933F935A
S11304704F935F936F937F938F939F93AF93BF93A8
S1130480EF93FF93E0918200F0918300309709F09D
S11304900995FF91EF91BF91AF919F918F917F91BA
S11304A06F915F914F913F912F910F900FBE0F90DD
S11304B01F9018951F920F920FB60F9211242F932D
S11304C03F934F935F936F937F938F939F93AF93D8
S11304D0BF93EF93FF93E0918000F09181003097F8
S11304E009F00995FF91EF91BF91AF919F918F9181
S11304F07F916F915F914F913F912F910F900FBE1C
S11305000F901F9018951F920F920FB60F921124FF
S11305102F933F934F935F936F937F938F939F9307
S1130520AF93BF93EF93FF93E0917E00F0917F0030
S1130530309709F00995FF91EF91BF91AF919F9189
S11305408F917F916F915F914F913F912F910F9078
S11305500FBE0F901F9018951F920F920FB60F9217
S113056011242F933F934F935F936F937F938F93B4
S11305709F93AF93BF93EF93FF93E0917C00F0912F
S11305807D00309709F00995FF91EF91BF91AF91EC
S11305909F918F917F916F915F914F913F912F9197
S11305A00F900FBE0F901F9018951F920F920FB6C9
S11305B00F9211242F933F934F935F936F937F93E5
S11305C08F939F93AF93BF93EF93FF93E0917A0040
S11305D0F0917B00309709F00995FF91EF91BF915D
S11305E0AF919F918F917F916F915F914F913F91C7
S11305F02F910F900FBE0F901F9018951F920F927E
S11306000FB60F9211242F933F934F935F936F93E1
S11306107F938F939F93AF93BF93EF93FF93E09157
S11306207800F0917900309709F00995FF91EF91E6
S1130630BF91AF919F918F917F916F915F914F91F6
S11306403F912F910F900FBE0F901F901895F89423
S1050650FFCFD6
S10B06527DC00001010000015C
S9030000FC
