S00C0000436F64652E737265639D
S11300000C942A000C9447000C9447000C9447006D
S11300100C9447000C9447000C9447000C94470040
S11300200C9447000C9447000C9447000C94470030
S11300300C9447000C9447000C9447000C94470020
S11300400C9447000C9447000C9447000C94470010
S11300500C94470011241FBECFE5D8E0DEBFCDBF0E
S113006010E0A0E6B0E0EEEAF4E002C005900D92E4
S1130070A638B107D9F720E0A6E8B0E001C01D9288
S1130080A738B207E1F70E94A6010C9455020C941C
S11300900000CF93C82F0E9402020E9412028830EF
S11300A091F480E40E940B020E941202883169F4E8
S11300B08C2F0E940B020E941202883241F40E948B
S11300C0080281E005C080E003C080E001C080E058
S11300D0CF910895CF93C82F809186008E7F80930F
S11300E086000E944900809186008D7F809386005F
S11300F00E94490089EF90E00197F1F700C00000E9
S1130100809186008460809386000E94490089EF74
S113011090E00197F1F700C00000809186008F7095
S11301209C2F907F892B809386000E94490089EF41
S113013090E00197F1F700C00000809186008B7F6A
S1130140809386000E94490089EF90E00197F1F7BF
S113015000C00000809186008460809386000E9425
S1130160490089EF90E00197F1F700C00000809109
S11301708600282F2F7030E1C39FC0011124822BE9
S1130180809386000E94490089EF90E00197F1F77F
S113019000C00000809186008B7F809386000E94BF
S11301A0490089EF90E00197F1F700C00000CF917A
S11301B008950E94FB0182E00E946A0088E20E9486
S11301C06A008FE00E946A0081E00E946A0008953C
S11301D0CF93C82F809186008160809386000E940F
S11301E04900809186008D7F809386000E9449009B
S11301F089EF90E00197F1F700C00000809186003C
S11302008460809386000E94490089EF90E0019702
S1130210F1F700C00000809186008F709C2F907FC2
S1130220892B809386000E94490089EF90E0019712
S1130230F1F700C00000809186008B7F80938600D8
S11302400E94490089EF90E00197F1F700C0000097
S1130250809186008460809386000E94490089EF23
S113026090E00197F1F700C0000080918600282FEC
S11302702F7030E1C39FC0011124822B809386002C
S11302800E94490089EF90E00197F1F700C0000057
S1130290809186008B7F809386000E94490089EFBD
S11302A090E00197F1F700C00000CF9108950F93FB
S11302B01F93CF93FC018081882359F08F01C0E004
S11302C00E94E800CF5FF801EC0FF11D80818111DD
S11302D0F7CFCF911F910F910895813041F028F00D
S11302E0823041F0833049F00AC0962F08C090E470
S11302F0960F05C090E1960F02C090E5960F892FE6
S113030080680E946A000895CF93DF93CDB7DEB76B
S113031060970FB6F894DEBF0FBECDBF4AE050E041
S1130320BE016F5F7F4F0E941502CE0101960E94AD
S1130330570160960FB6F894DEBF0FBECDBFDF91B4
S1130340CF91089581E00E946A000895CF93DF93CE
S11303500E94D9000E94A201C0E0D0E00E94A20144
S1130360CE010E9484012FE986E891E0215080406B
S11303709040E1F700C000002196C430D10571F728
S113038060E080E00E946D0180E690E00E945701E9
S113039060E081E00E946D018EE690E00E945701CA
S11303A02FE78AE196E0215080409040E1F700C0B9
S11303B000000E94A20187E790E00E9457012FE706
S11303C08AE196E0215080409040E1F700C00000AF
S11303D00E94A2012FE38DE093E0215080409040E1
S11303E0E1F700C000008CE00E946A0080E090E029
S11303F0DF91CF91089582E080B911B882B984E089
S113040086BF089584EA86BF06B607FEFDCF089529
S113041084E986BF089583B984E886BF06B607FEDB
S1130420FDCF089581B1887F08954532510520F4A8
S1130430423010F00C942002FB011082CB0108958D
S1130440BB274A3031F4992322F4BDE2909581957B
S11304509F4F0C942C02BB27FB015527AA27880F1A
S1130460991FAA1FA41710F0A41B83955051B9F724
S1130470A05DAA3308F0A95DA193009779F7B111A3
S1130480B1931192CB010C944502DC01FC01672F5E
S113049071917723E1F7329704C07C916D93708357
S11104A06291AE17BF07C8F30895F894FFCF1A
S11304AE4974277320746865206C617374005461F9
S11304BE736B202A5F2A0046696E616C6C797979B8
S10904CE203E5F3C00002B
S9030000FC
