:100000000C942A000C9434000C9434000C943400AA
:100010000C9434000C9434000C9434000C94340090
:100020000C9434000C9434000C9434000C94340080
:100030000C9434000C9434000C9434000C94340070
:100040000C9434000C9434000C9434000C94340060
:100050000C94340011241FBECFE5D8E0DEBFCDBF25
:100060000E94B1010C948F030C940000862F672F1F
:1000700041E00E9463000895962F813031F441E001
:10008000672F892F0E94EB000895811105C040E081
:10009000672F892F0E94EB000895962F813031F44D
:1000A00040E0672F892F0E94EB000895811105C061
:1000B00041E0672F892F0E94EB000895862F672F5C
:1000C0000E9473010895843008F07BC0683008F006
:1000D0007AC04130C1F5813091F028F08230D9F0FA
:1000E000833029F172C02AB381E090E002C0880F0A
:1000F000991F6A95E2F7822B8ABB81E0089527B3A6
:1001000081E090E002C0880F991F6A95E2F7822B88
:1001100087BB81E0089524B381E090E002C0880F9E
:10012000991F6A95E2F7822B84BB81E0089521B381
:1001300081E090E002C0880F991F6A95E2F7822B58
:1001400081BB81E00895411142C0813099F028F0CF
:100150008230E9F0833041F13CC02AB381E090E085
:1001600002C0880F991F6A95E2F7809582238ABBA7
:1001700081E0089527B381E090E002C0880F991FC5
:100180006A95E2F78095822387BB81E0089524B3C6
:1001900081E090E002C0880F991F6A95E2F7809590
:1001A000822384BB81E0089521B381E090E002C006
:1001B000880F991F6A95E2F78095822381BB81E0C1
:1001C000089580E0089580E0089581E0089580E03A
:1001D000089581E00895843008F07BC0683008F00D
:1001E0007AC04130C1F5813091F028F08230D9F0E9
:1001F000833029F172C02BB381E090E002C0880FF8
:10020000991F6A95E2F7822B8BBB81E0089528B392
:1002100081E090E002C0880F991F6A95E2F7822B77
:1002200088BB81E0089525B381E090E002C0880F8B
:10023000991F6A95E2F7822B85BB81E0089522B36E
:1002400081E090E002C0880F991F6A95E2F7822B47
:1002500082BB81E00895411142C0813099F028F0BD
:100260008230E9F0833041F13CC02BB381E090E073
:1002700002C0880F991F6A95E2F7809582238BBB95
:1002800081E0089528B381E090E002C0880F991FB3
:100290006A95E2F78095822388BB81E0089525B3B3
:1002A00081E090E002C0880F991F6A95E2F780957F
:1002B000822385BB81E0089522B381E090E002C0F3
:1002C000880F991F6A95E2F78095822382BB81E0AF
:1002D000089580E0089580E0089581E0089580E029
:1002E000089581E008956830C0F5813091F028F0DC
:1002F0008230D9F0833029F132C02BB381E090E015
:1003000002C0880F991F6A95E2F782278BBB81E0B4
:10031000089528B381E090E002C0880F991F6A9584
:10032000E2F7822788BB81E0089525B381E090E061
:1003300002C0880F991F6A95E2F7822785BB81E08A
:10034000089522B381E090E002C0880F991F6A955A
:10035000E2F7822782BB81E0089580E0089581E082
:1003600008956894222421F8E12C3324339468946E
:10037000442441F855245394662463946894772464
:1003800071F86894882481F8992493946894AA2435
:10039000A1F80F2EF3E0BF2EF02DCC24C394689467
:1003A000DD24D1F802E015E0D1E0C2E0F12C60E0FC
:1003B00070E081E00E94360060E071E081E00E9420
:1003C000360060E072E081E00E94360060E073E099
:1003D00081E00E94360060E074E081E00E94360017
:1003E00060E075E081E00E94360060E076E081E048
:1003F0000E94360060E077E081E00E94360061E014
:1004000070E081E00E94360061E071E081E00E94CE
:10041000360061E072E081E00E94360061E073E046
:1004200081E00E94360061E074E081E00E943600C5
:1004300061E075E081E00E94360061E076E081E0F5
:100440000E94360061E077E081E00E94360062E0C1
:1004500070E081E00E94360062E071E081E00E947D
:10046000360062E072E081E00E94360062E073E0F4
:1004700081E00E94360062E074E081E00E94360074
:1004800062E075E081E00E94360062E076E081E0A3
:100490000E94360062E077E081E00E94360063E06F
:1004A00070E081E00E94360063E071E081E00E942C
:1004B000360063E072E081E00E94360063E073E0A2
:1004C00081E00E94360063E074E081E00E94360023
:1004D00063E075E081E00E94360063E076E081E051
:1004E0000E94360063E077E081E00E94360060E021
:1004F00074E081E00E943C0060E075E081E00E94D1
:100500003C0060E076E081E00E943C0060E077E043
:1005100081E00E943C0060E070E081E00E945E00AB
:1005200060E071E081E00E945E0060E072E081E0E6
:100530000E945E0060E073E081E00E945E0087EA56
:1005400091E60197F1F700C0000061E070E081E002
:100550000E945E0061E071E081E00E945E0061E067
:1005600072E081E00E945E0061E073E081E00E9441
:100570005E0087EA91E60197F1F700C0000061E0B4
:1005800074E081E00E945E0061E075E081E00E941D
:100590005E0061E076E081E00E945E0061E077E06D
:1005A00081E00E945E0087EA91E60197F1F700C0C2
:1005B000000063E073E081E00E943C0063E074E0CF
:1005C00081E00E943C006A2D7B2D8C2D0E943C0016
:1005D0006D2D74E081E00E943C0087EA91E601976E
:1005E000F1F700C0000063E071E081E00E943C0090
:1005F00063E072E081E00E943C00642D752D862D41
:100600000E943C00672D782D892D0E943C0063E0FC
:1006100075E081E00E943C0063E076E081E00E94AA
:100620003C00602F712F8D2F0E943C006C2F76E0D4
:1006300081E00E943C0087EA91E60197F1F700C053
:10064000000063E07F2D81E00E943C0063E077E0E2
:1006500081E00E943C00622D7E2D832D0E943C0093
:1006600062E077E081E00E943C009FE926E881E0BB
:10067000915020408040E1F700C0000063E07F2DF2
:1006800081E00E944D0063E071E081E00E944D0036
:1006900063E072E081E00E944D0063E073E081E07E
:1006A0000E944D0063E074E081E00E944D0063E031
:1006B00075E081E00E944D0063E076E081E00E94F9
:1006C0004D0063E077E081E00E944D00622D7E2DB9
:1006D000832D0E944D00642D752D862D0E944D00A6
:1006E000672D782D892D0E944D006A2D7B2D8C2D34
:1006F0000E944D006D2D74E081E00E944D00602F3E
:10070000712F8D2F0E944D006C2F76E081E00E94AA
:100710004D0062E077E081E00E944D00E8CEF89461
:02072000FFCF09
:00000001FF
