:100000000C942A000C9447000C9447000C94470071
:100010000C9462020C9439020C9410020C94E701C7
:100020000C94BE010C9495010C946C010C9443014A
:100030000C9447000C9447000C9447000C94470024
:100040000C9447000C9447000C9447000C94470014
:100050000C94470011241FBECFE5D8E0DEBFCDBF12
:1000600010E0A0E6B0E0EAE1F5E002C005900D92F4
:10007000A436B107D9F720E0A4E6B0E001C01D9294
:10008000A438B207E1F70E941A010C948B020C9479
:100090000000843008F07BC0683008F07AC041303E
:1000A000C1F5813091F028F08230D9F0833029F108
:1000B00072C02AB381E090E002C0880F991F6A9550
:1000C000E2F7822B8ABB81E0089527B381E090E0BC
:1000D00002C0880F991F6A95E2F7822B87BB81E0E7
:1000E000089524B381E090E002C0880F991F6A95BB
:1000F000E2F7822B84BB81E0089521B381E090E098
:1001000002C0880F991F6A95E2F7822B81BB81E0BC
:100110000895411142C0813099F028F08230E9F011
:10012000833041F13CC02AB381E090E002C0880FE7
:10013000991F6A95E2F7809582238ABB81E0089532
:1001400027B381E090E002C0880F991F6A95E2F71B
:100150008095822387BB81E0089524B381E090E0FD
:1001600002C0880F991F6A95E2F78095822384BBAD
:1001700081E0089521B381E090E002C0880F991FCB
:100180006A95E2F78095822381BB81E0089580E043
:10019000089580E0089581E0089580E0089581E069
:1001A00008956830C0F5813091F028F08230D9F0A0
:1001B000833029F132C02BB381E090E002C0880F78
:1001C000991F6A95E2F782278BBB81E0089528B3D7
:1001D00081E090E002C0880F991F6A95E2F78227BC
:1001E00088BB81E0089525B381E090E002C0880FCC
:1001F000991F6A95E2F7822785BB81E0089522B3B3
:1002000081E090E002C0880F991F6A95E2F782278B
:1002100082BB81E0089580E0089581E00895862FF3
:10022000672F41E00E9449000895862F672F0E94A2
:10023000D10008956091600070916100809162002A
:100240000E940F010E9438010E943F0160916000EE
:1002500070916100809162000E9415012FED82E291
:1002600092E0215080409040E1F700C00000EACFCA
:1002700081B5887F81BD81B5866081BD089581B5D6
:10028000886081BD08951F920F920FB60F921124BE
:100290002F933F934F935F936F937F938F939F938E
:1002A000AF93BF93EF93FF93E0917A00F0917B00BF
:1002B000309709F00995FF91EF91BF91AF919F9110
:1002C0008F917F916F915F914F913F912F910F90FF
:1002D0000FBE0F901F9018951F920F920FB60F929E
:1002E00011242F933F934F935F936F937F938F933B
:1002F0009F93AF93BF93EF93FF93E0917800F091BA
:100300007900309709F00995FF91EF91BF91AF9176
:100310009F918F917F916F915F914F913F912F911D
:100320000F900FBE0F901F9018951F920F920FB64F
:100330000F9211242F933F934F935F936F937F936B
:100340008F939F93AF93BF93EF93FF93E0917600CA
:10035000F0917700309709F00995FF91EF91BF91E7
:10036000AF919F918F917F916F915F914F913F914D
:100370002F910F900FBE0F901F9018951F920F9204
:100380000FB60F9211242F933F934F935F936F9368
:100390007F938F939F93AF93BF93EF93FF93E091DE
:1003A0007400F0917500309709F00995FF91EF9175
:1003B000BF91AF919F918F917F916F915F914F917D
:1003C0003F912F910F900FBE0F901F9018951F9285
:1003D0000F920FB60F9211242F933F934F935F9379
:1003E0006F937F938F939F93AF93BF93EF93FF93FD
:1003F000E0917200F0917300309709F00995FF9138
:10040000EF91BF91AF919F918F917F916F915F918C
:100410004F913F912F910F900FBE0F901F90189505
:100420001F920F920FB60F9211242F933F934F9369
:100430005F936F937F938F939F93AF93BF93EF934C
:10044000FF93E0917000F0917100309709F00995E9
:10045000FF91EF91BF91AF919F918F917F916F919C
:100460005F914F913F912F910F900FBE0F901F9072
:1004700018951F920F920FB60F9211242F933F934E
:100480004F935F936F937F938F939F93AF93BF939C
:10049000EF93FF93E0916E00F0916F00309709F0B9
:1004A0000995FF91EF91BF91AF919F918F917F91AE
:1004B0006F915F914F913F912F910F900FBE0F90D1
:1004C0001F9018951F920F920FB60F9211242F9321
:1004D0003F934F935F936F937F938F939F93AF93CC
:1004E000BF93EF93FF93E0916C00F0916D00309714
:1004F00009F00995FF91EF91BF91AF919F918F9175
:100500007F916F915F914F913F912F910F900FBE0F
:0A0510000F901F901895F894FFCF8C
:04051A0000000100DC
:00000001FF
